:080000000C94A7010C94000010
:100008000C9400000C9400000C9400000C94000068
:100018000C9400000C9400000C9400000C94000058
:100028000C9400000C9400000C9400000C94000048
:100038000C9400000C9400000C9400000C94000038
:100048000C9400000C9400000C9400000C94000028
:100058000C9400000C9496020C9400000C94E5019A
:100068000C9400000C9400000C9400000C94000008
:100078000C9400000C9400000C9400000C940000F8
:100088000C9400000C9400000C9410020C940000D6
:100098000C9400000C9400000C9400000C940000D8
:1000A8000C9400000C9400000C9400000C940000C8
:1000B8000C9400000C9400000C9400000C940000B8
:1000C8000C9400000C943B020C9400000C9400006B
:1000D8000C9465020C9400000C940000303532300A
:1000E800322E33312E3139392E323131901F30359D
:1000F80031353235333500A2130000A2130000A2B7
:10010800130000A21300727A8B402C1D2441E1CF0A
:100118008A40E1858B400000C03F040100000000D8
:100128000000000000000000000000000000ACC556
:10013800A7380AD7233CA2E73BB654E3253D000085
:1001480080C0256325633A0025632563256354250C
:100158002B30342E3166482530342E3166335625FF
:10016800303375492530332E316635562530337591
:10017800492530332E316644253033752563256390
:100188002563002530325800415445300D004F4B4F
:100198000041542B5A495043414C4C3D25750D00A4
:1001A8004552524F52002B5A495043414C4C3A2029
:1001B800310041542B5A49504F50454E3D25752C1E
:1001C80025752C25732C25750D002B5A4950535431
:1001D80041543A20310041542B5A495053454E441A
:1001E8003D25752C25730D002B5A495053454E4417
:1001F8003A005A4950524543563A002C3032002CA6
:10020800003A4F4E334B003A4F4E354B003A4F466B
:1002180046334B003A4F4646354B003A5448002582
:10022800632563256354252B30342E3166482530E9
:10023800342E3166256325632563003A5649002527
:100248006325632563335625303375492530332EAE
:100258003166355625303375492530332E316625BC
:100268006325632563003A440025632563256344B9
:100278002530337525632563256300002D4E414ED7
:10028800000001002D4E414E00000E008B0AE600D2
:1002980008007C14F6000F008414FE00100094146B
:1002A8000E010400B2141E010200B814220103005A
:1002B800000A96010600030AA8010C00090AAE010B
:1002C8000300150AB7010300180AB70106001B0A44
:1002D800B4010300210AB7010600240ACC010C006E
:1002E8002A0AD2010300360ADB010300390ADB01BE
:1002F80006003C0AEA010300420AED010A00450A29
:10030800F0010A004F0AF0010900590AFA01040035
:10031800620A03020600660A090206006C0A0F0256
:100328000700720A15020700790A1C020400800AF5
:1003380023020400840A43020300880A6E020100B3
:10034800BC148A020000F894EE27EFBBF1E0F5BF79
:10035800E5BFE0937400E0937500F8E1A895A4B7B1
:10036800A77FA4BFF0936000E09360008DE0A2E057
:10037800BB27ED938A95E9F780E090E2A0E0B2E030
:10038800ED930197E9F7E2E9F2E0859195910097FD
:1003980061F0A591B59105901590BF01F001059008
:1003A8000D920197E1F7FB01F0CF8BBF8CBFE0E026
:1003B800EEBBEFEFEDBFE1E2EEBFC0E0DAE00C9498
:1003C800B102AA93EA93FA93EFB7EA931A930A93BE
:1003D8001091C0000091C600E12FEC71E1F4E32D0B
:1003E800F42DE656F54F0083E32DF42D31963E2E7D
:1003F8004F2EE83EA3E0FA0711F433244424E72DF6
:10040800F82D31967E2E8F2EE83EA3E0FA0719F4D8
:1004180077248824F09A7EC0AA93EA93FA93EFB7D8
:10042800EA931A930A931091C8000091CE00E12F25
:10043800EC71E1F4E92DFA2DEE57F14F0083E92D27
:10044800FA2D31969E2EAF2EE83EA3E0FA0711F45E
:100458009924AA24ED2DFE2D3196DE2EEF2EE83EAE
:10046800A3E0FA0719F4DD24EE24F19A53C0AA9305
:10047800EA93FA93EFB7EA931A930A931091D0008C
:100488000091D600E12FEC71D9F4E0916814F0E006
:10049800E659FD4E0083A0916814AF5FA0936814DD
:1004A800AF3F19F4E0E0E0936814A0916A14AF5FDD
:1004B800A0936A14AF3F21F4E0E0E0936A14F29A43
:1004C80029C0AA93EA93FA93EFB7EA931A930A9387
:1004D8001091300100913601E12FEC71D9F4E091CF
:1004E8006B14F0E0E759FC4E0083A0916B14AF5FEA
:1004F800A0936B14AF3F19F4E0E0E0936B14A09164
:100508006D14AF5FA0936D14AF3F21F4E0E0E0936A
:100518006D14F39A09911991E991EFBFF991E99155
:10052800A99118956A937A93AA93BA93EA93FA933E
:10053800EFB7EA93AFE6B4E10E94151CEF5FFF4FF7
:100548006F4F7F4F0E941F1CE991EFBFF991E9910E
:10055800B991A991799169911895EF97EF97659756
:10056800D7D2E3E7F4E1FA93EA93EAE4F1E0FA9305
:10057800EA93E5E3F0E060E070E00E942E1CE0E31F
:10058800F0E060E070E00E942E1C88E00E94EF1608
:100598002C96FE01EE59FF4FFA93EA93E0E0EA93B6
:1005A800EDE2F0E0FA93EA930E945417FE013896C0
:1005B800FA93EA93E0E0EA93EAE5F0E0FA93EA9343
:1005C8000E945417E0916F14F091701460917114A7
:1005D80070917214DE01A157BF4FED93FD936D9397
:1005E8007C93DE01A157BF4F0D901D908D919C917A
:1005F800D001E0916F14F0917014609171147091B2
:1006080072140E942F1BE839AAE3FA07A0E06A07D0
:10061800A0E07A0730F30E94BC100E94AB07E0E02C
:10062800EA930E94EF07E1E0EA930E94EF07E0ED0A
:10063800F7E0FA93EA930E947619E1E0EA93E0E0A2
:10064800EA93EBE8FAE0FA93EA93E0E9FFE1FA9338
:10065800EA930E940209E0EDF7E0FA93EA930E9418
:100668007619E0916F14F091701460917114709183
:100678007214DE01A157BF4FED93FD936D937C93E8
:10068800DE01A157BF4F0D901D908D919C91D00117
:10069800E0916F14F091701460917114709172145C
:1006A8000E942F1BEF31AEE4FA07A0E06A07A0E032
:1006B8007A0710F40C94AE0400E0FE013496FA9325
:1006C800EA93EDB7FEB7FA93EA933F93E1E0EA9332
:1006D8000E94DD103F910E0FFE01FA93EA93EDB7E9
:1006E800FEB7FA93EA933F93E0E0EA930E94DD10A5
:1006F8003F910E0FEDB7FEB7FA93EA932F93EDB73C
:10070800FEB7FA93EA933F930E94C6103F912F9148
:100718000E0F003019F00E94A61026C0E0917A143E
:10072800F0917B14662777270E94EE19EC83FD83EE
:100738006E837F83E0917814F09179146627772788
:100748000E94EE190E94291CEC81FD816E817F8137
:100758000E942E1CFE013496FA93EA930E945311CC
:10076800EC83FD836E837F830E94241CE093A41492
:10077800F093A5146093A6147093A714EC81FD81DF
:100788006E817F81E093A814F093A9146093AA1452
:100798007093AB140E94E70EE093AC14F093AD1481
:1007A800FE01EE59FF4FFA93EA93E0E5F1E0FA9380
:1007B800EA93E2E0F0E060E070E00E942E1CE5E3DE
:1007C800F0E060E070E00E942E1CE0E3F0E060E002
:1007D80070E00E942E1CE091A414F091A514609181
:1007E800A6147091A7140E942E1CE091A814F091F1
:1007F800A9146091AA147091AB140E942E1CE09168
:10080800B614F091B714662777270E942E1CE09142
:10081800AE14F091AF146091B0147091B1140E94AD
:100828002E1CE091B814F091B914662777270E941E
:100838002E1CE091B214F091B3146091B41470912D
:10084800B5140E942E1CE091AC14F091AD146627EB
:1008580077270E942E1CE3E0F0E060E070E00E9441
:100868002E1CEDE0F0E060E070E00E942E1CEAE053
:10087800F0E060E070E00E942E1C84E30E94EF1616
:10088800E89610E0FE01EE59FF4FFA93EA930E94B2
:100898006D17A12FB0E0AE17BF0718F5FE01389607
:1008A800FA93EA930E946D17DE011896EA0FFB1F70
:1008B800FA93EA93EBE8F1E0FA93EA93E12FF0E098
:1008C800DE01AA59BF4FAE0FBF1FEC91FF27662765
:1008D80077270E942E1C84E00E94EF1628961F5F3F
:1008E800D1CFE1E0EA93FE013996FA93EA930E94A8
:1008F800E509FE01EE59FF4FFA93EA93E0E0EA9327
:10090800EDE2F0E0FA93EA930E945417FE0138965C
:10091800FA93EA93E0E0EA93EAE5F0E0FA93EA93DF
:100928000E945417E0E0E0936F14E0937014E09392
:100938007114E0937214E0916F14F0917014609147
:10094800711470917214DE01A157BF4FED93FD939E
:100958006D937C930E94B60B0E94840E91CEFFCFBC
:100968001A93E0916E14F0E03097E1F4072C082810
:10097800E9F3AAE9BAE0A50DB61D1C91E52DF62DFF
:1009880031965E2E6F2EE83EA3E0FA0711F4552447
:100998006624F894E72DF82D31977E2E8F2E7894C3
:1009A800E12F61C0E130A0E0FA07E1F40D2C0E2838
:1009B800E9F3A2E8BEE0AB0DBC1D1C91EB2DFC2DAC
:1009C8003196BE2ECF2EE83EA3E0FA0711F4BB24E1
:1009D800CC24F894ED2DFE2D3197DE2EEF2E789451
:1009E800E12F41C0E230A0E0FA07E9F4E0916A148F
:1009F800E030E1F3E0916914F0E0E659FD4E108132
:100A0800A0916914AF5FA0936914AF3F19F4E0E0B7
:100A1800E0936914F894E0916A14E150E0936A1441
:100A28007894E12F20C0E330A0E0FA07E1F4E091E8
:100A38006D14E030E1F3E0916C14F0E0E759FC4EFE
:100A48001081A0916C14AF5FA0936C14AF3F19F4A0
:100A5800E0E0E0936C14F894E0916D14E150E093B9
:100A68006D147894E12F19910895E0916E14F0E0D7
:100A7800309741F4E091C000E072E1F3E881E0933F
:100A8800C60023C0E130A0E0FA0741F4E091C800B5
:100A9800E072E1F3E881E093CE0017C0E230A0E015
:100AA800FA0741F4E091D000E072E1F3E881E093C5
:100AB800D6000BC0E330A0E0FA0739F4E09130012A
:100AC800E072E1F3E881E093360121960895E09120
:100AD8006E14F0E0309721F4E72DF82D089517C033
:100AE800E130A0E0FA0721F4ED2DFE2D08950FC0A6
:100AF800E230A0E0FA0719F4E0916A1406C0E33086
:100B0800A0E0FA0721F4E0916D14F0E0089508954B
:100B1800E0E8E0936100E0E0E0936100E7B9E8B95C
:100B2800E4BDE3E0E5BDE0E0E6BDE7BDE8BDE1E04A
:100B3800E0936E00E0E0E093C000E8E9E093C100D4
:100B4800E6E0E093C200E0E0E093C500E7E6E0936A
:100B5800C400E0E0E093C800E8E9E093C900E6E0FB
:100B6800E093CA00E0E0E093CD00E7E6E093CC0034
:100B7800E0E0E093D000E8E9E093D100E6E0E0931C
:100B8800D200E0E0E093D500E7E6E093D400E0E0AF
:100B9800E0933001E8E9E0933101E6E0E0933201C7
:100BA800E0E0E0933501E7E6E0933401E0E8E0BFF8
:100BB800E0E0E0937B00EFE0E0937E00E0E0E0938C
:100BC8007D00E0E4E0937C00E4EAE0937A00E091C1
:100BD8007B00E87FE0937B007894089526970E9435
:100BE8004F1C40E050E0EC89FD89EE83FF832EEF37
:100BF8003FEF1FEF3E96AF01E12FF0E070971E2FF9
:100C0800E12FF0E030971E2FA12FBB27E22FF0E055
:100C18000E94391CEA1BFB0B1E2FA12FBB27E32FB9
:100C2800F0E00E94391CEA1BFB0B1E2FE12FF0E0BD
:100C380030971E2FE12FF0E030971E2FE0E0E09371
:100C48006E14EEE7EA9311DFE0E0EA930EDF4A93D1
:100C58000CDFE0E1EA9309DFE0E0EA9306DFE4E095
:100C6800F0E060E070E0E887F9876A877B87A8850D
:100C7800B9858A859B850E94441C4CF5E885F985D1
:100C88006A857B85E150F04060407040EE0FEE0FC2
:100C9800EE0FA889B9898A899B890E94511B0E2F5A
:100CA8000A93E3DEA12FBB27E02FF0E00E94391C56
:100CB800EA1BFB0B1E2FE885F9856A857B85319732
:100CC80060407040E887F9876A877B87D0CFE4E087
:100CD800F0E060E070E0E887F9876A877B87A8859D
:100CE800B9858A859B850E94441C4CF5E885F98561
:100CF8006A857B85E150F04060407040EE0FEE0F52
:100D0800EE0FAC85BD858E859F850E94511B0E2FE9
:100D18000A93ABDEA12FBB27E02FF0E00E94391C1D
:100D2800EA1BFB0B1E2FE885F9856A857B853197C1
:100D380060407040E887F9876A877B87D0CF3A930D
:100D480094DE2A9392DEE0E0EA938FDEE0E0EA9315
:100D58008CDEE0E0E887E987EA87EB87EE81FF81B0
:100D6800A885B9858A859B850E94711B0E944A1CAB
:100D780024F5E885F985AE89BF89AE0FBF1FEC91D0
:100D8800EA9373DE012E1124E885F985AE89BF89BF
:100D9800AE0FBF1FAC91BB27F001EA1BFB0B1E2F48
:100DA800E885F9856A857B85EF5FFF4F6F4F7F4F39
:100DB800E887F9876A877B87D1CF1A9356DE0E9426
:100DC800561C68960895619781E1A0E0B0E0E4E2DE
:100DD800F1E00E945D1C0E944F1C10E000E030E032
:100DE80050E04FEFE0E0E0936E1471DE309711F4BD
:100DF8000C94A607B5DD1E2F1E3711F00C94A3071F
:100E080066DE3297E8F3ACDD0E2FAADD3E2FF02F19
:100E1800E0E0DF01E32FF0E0EA0FFB1FEE83FF8342
:100E2800AE81BF811D9714F40C94A10799DD1E2F84
:100E3800103911F00C949F07E42FF0E0E059F040CE
:100E48004E2F45DE3897E8F320E02830A0F488DDFF
:100E58001E2FE22FF0E0DE011D96EA0FFB1F108324
:100E6800A42FBB27E12FF0E00E94391CEA1BFB0BE3
:100E78004E2F2F5FEACF2BDE3297E8F320E02230A7
:100E8800A0F46EDD1E2FE22FF0E0DE011996EA0FC6
:100E9800FB1F1083A42FBB27E12FF0E00E94391C11
:100EA800EA1BFB0B4E2F2F5FEACF11DE3197E8F3D9
:100EB80057DD5E2FA42FBB27E52FF0E00E94391CD9
:100EC800EA1BFB0B4E2F03DE3C97E8F320E0EE8194
:100ED800FF813C97A22FB0E0AE17BF07A4F440DD16
:100EE8001E2FE22FAF89B88DF0E0EA0FFB1F1083A9
:100EF800A42FBB27E12FF0E00E94391CEA1BFB0B53
:100F08004E2F2F5FE4CFE3DD3197E8F329DDE88743
:100F1800A8854A1771F0EF89F88DFA93EA93E0E013
:100F2800EA93E2E0F0E0FA93EA930E945417E0E0D3
:100F38000AC0E1E008C0E0E006C0E0E004C0E0E08C
:100F480002C001C0E0E00E94561C699608952A97E5
:100F58001A930A9310E000E0FE013296FA93EA939E
:100F6800E0E0EA93EAE0F0E0FA93EA930E9454178B
:100F7800E1E0E0936E14E0E9F1E0FA93EA9380E0AF
:100F88000E942D1722961A3019F0EADC1E2FFBCF8B
:100F9800E7DC1E2F1A3061F0E02FF0E0DE01129638
:100FA800EA0FFB1F10830F5FDBDC1E2F093091F760
:100FB800FE013296FA93EA93E0E0FAE0FA93EA93B4
:100FC8000E949717309711F0E1E001C0E0E0198125
:100FD80008812C960895EF9727971A930A9310E0A3
:100FE80000E0FE013296FA93EA93E0E0EA93E6E441
:100FF800F0E0FA93EA930E945417E1E0E0936E144C
:10100800E9E9F1E0FA93EA93FE01E65BFF4FE0813C
:10101800FF27662777270E942E1C84E00E942D1741
:1010280026961A3019F09CDC1E2FFBCFDE01A85B38
:10103800BF4FAC91A13011F00C94B20891DC1E2F77
:101048001A3061F0E02FF0E0DE011296EA0FFB1F84
:1010580010830F5F85DC1E2F053491F7FE01329651
:10106800FA93EA93E3E0FAE0FA93EA930E94971777
:10107800309771F0FE013296FA93EA93E0E0EA9332
:10108800E6E4F0E0FA93EA930E945417E0E0B1C076
:10109800FE013296FA93EA93E9E0FAE0FA93EA93CA
:1010A8000E949717309711F40C94B108FE013296FC
:1010B800FA93EA93E0E0EA93E6E4F0E0FA93EA933D
:1010C8000E94541710E01A3019F04ADC1E2FFBCF8B
:1010D80000E046DC1E2F1A3061F0E02FF0E0DE0160
:1010E8001296EA0FFB1F10830F5F3ADC1E2F0534A0
:1010F80091F7FE013296FA93EA93E5E1FAE0FA9362
:10110800EA930E949717309771F0FE013296FA938E
:10111800EA93E0E0EA93E6E4F0E0FA93EA930E94C7
:101128005417E1E066C0FE013296FA93EA93E8E1CB
:10113800FAE0FA93EA930E949717309771F4FE0148
:101148003296FA93EA93E0E0EA93E6E4F0E0FA9361
:10115800EA930E945417E0E04CC04BC0FE01E85BE4
:10116800FF4FE081E03011F00C94FD08F9DB1E2FF1
:101178001A3061F0E02FF0E0DE011296EA0FFB1F53
:1011880010830F5FEDDB1E2F053491F7FE013296B9
:10119800FA93EA93EBE1FAE0FA93EA930E9497173D
:1011A800309771F0FE013296FA93EA93E0E0EA9301
:1011B800E6E4F0E0FA93EA930E945417E0E019C0DD
:1011C800FE013296FA93EA93E1E2FAE0FA93EA939F
:1011D8000E949717309769F0FE013296FA93EA93C6
:1011E800E0E0EA93E6E4F0E0FA93EA930E94541709
:1011F800E1E019810881EF962A960895EF972797DD
:101208001A930A9310E000E0FE013296FA93EA93EB
:10121800E0E0EA93E6E4F0E0FA93EA930E945417D8
:10122800E1E0E0936E14EAEBF1E0FA93EA93FE0151
:10123800E15BFF4FE081FF27662777270E942E1C7E
:10124800FE01EE5AFF4FE081FF27662777270E94AD
:101258002E1CFE01EC5AFF4F0190F081E02D66270D
:1012680077270E942E1CFE01EA5AFF4F0190F08159
:10127800E02D662777270E942E1C80E10E942D17FB
:10128800629610E01A3021F00E94B4041E2FFACFA3
:1012980000E00E94B4041E2F1A3069F0E02FF0E03D
:1012A800DE011296EA0FFB1F10830F5F0E94B40441
:1012B8001E2F053489F7FE013296FA93EA93E4E289
:1012C800FAE0FA93EA930E949717309771F0FE01BB
:1012D8003296FA93EA93E0E0EA93E6E4F0E0FA93D0
:1012E800EA930E945417E0E067C0FE013296FA9331
:1012F800EA93EAE2FAE0FA93EA930E9497173097A2
:1013080011F40C94E009FE013296FA93EA93E0E0B6
:10131800EA93E6E4F0E0FA93EA930E94541710E0A7
:101328001A3021F00E94B4041E2FFACF00E00E9468
:10133800B4041E2F1A3069F0E02FF0E0DE01129697
:10134800EA0FFB1F10830F5F0E94B4041E2F0534A1
:1013580089F7FE013296FA93EA93E6E3FAE0FA9304
:10136800EA930E949717309771F0FE013296FA932C
:10137800EA93E0E0EA93E6E4F0E0FA93EA930E9465
:101388005417E1E019C0FE013296FA93EA93E9E3B3
:10139800FAE0FA93EA930E949717309769F4FE01EE
:1013A8003296FA93EA93E0E0EA93E6E4F0E0FA93FF
:1013B800EA930E945417E0E019810881EF962F966E
:1013C8000895EF9727971A930A9310E000E0FE011B
:1013D8003296FA93EA93E0E0EA93E6E4F0E0FA93CF
:1013E800EA930E945417E1E0E0936E14EEEDF1E009
:1013F800FA93EA93FE01E45BFF4FE081FF2766273B
:1014080077270E942E1CFE01E25BFF4F0190F081BE
:10141800E02D662777270E942E1C88E00E942D1752
:101428002A9610E01A3021F00E94B4041E2FFACF39
:1014380000E00E94B4041E2F1A3069F0E02FF0E09B
:10144800DE011296EA0FFB1F10830F5F0E94B4049F
:101458001E2F053489F7FE013296FA93EA93ECE3DE
:10146800FAE0FA93EA930E949717309771F0FE0119
:101478003296FA93EA93E0E0EA93E6E4F0E0FA932E
:10148800EA930E945417E0E067C0FE013296FA938F
:10149800EA93E2E4FAE0FA93EA930E949717309706
:1014A80011F40C94B00AFE013296FA93EA93E0E044
:1014B800EA93E6E4F0E0FA93EA930E94541710E006
:1014C8001A3021F00E94B4041E2FFACF00E00E94C7
:1014D800B4041E2F1A3069F0E02FF0E0DE011296F6
:1014E800EA0FFB1F10830F5F0E94B4041E2F053400
:1014F80089F7FE013296FA93EA93E5E4FAE0FA9363
:10150800EA930E949717309771F0FE013296FA938A
:10151800EA93E0E0EA93E6E4F0E0FA93EA930E94C3
:101528005417E1E019C0FE013296FA93EA93EFE40A
:10153800FAE0FA93EA930E949717309769F4FE014C
:101548003296FA93EA93E0E0EA93E6E4F0E0FA935D
:10155800EA930E945417E0E019810881EF962C96CF
:1015680008950E944F1CAE81B0E0E0E1F0E00E94D7
:10157800A91B33978F01AE81BB27E0E1F0E00E9401
:10158800DF1B9F01F801AAE0B0E00E947E1BE20F7A
:10159800F31FAF014A30E0E05E0714F041505040BD
:1015A800FA010E94561C279608950E94511CED814D
:1015B800EA93D7DF0E945D1B8F01EC81EA93D1DFAC
:1015C8009F01F901E00FF11F0E94581C269608950B
:1015D800EF97AA970E944F1C10E000E030E020E04F
:1015E800FE013B96FA93EA93E0E0EA93E4E6F0E042
:1015F800FA93EA930E945417FE013896FA93EA93F5
:10160800E0E0EA93E3E0F0E0FA93EA930E945417EB
:10161800E1E0E0936E145BDA309711F40C94B00BB0
:101628000E94B4045E2F5B3211F00C94AE0BFE01E5
:101638003B96FA93EA93E0E0EA93E4E6F0E0FA9363
:10164800EA930E945417FE013B96FA93EA93E3E665
:10165800F0E0FA93EA930E940812FE013B96FA938F
:10166800EA93E9E5FAE0FA93EA930E94971730972C
:1016780061F0FE013B96FA93EA93E2E6FAE0FA9308
:10168800EA930E949717309709F462C0FE013B96CF
:10169800FA93EA93E7E0F2E0FA93EA930E94BF171D
:1016A800EE83FF83E0E0F0E0FA93EA93E7E0F2E00C
:1016B800FA93EA930E94BF17EE83FF83E0E0F0E01D
:1016C800FA93EA93E7E0F2E0FA93EA930E94BF17ED
:1016D800EE83FF83FA93EA930E946D173E2F10E082
:1016E800131750F5A12FBB27E2E0F0E00E94DF1BA3
:1016F8003097D1F0E02FDE01A159BF4F0D90BC917A
:10170800A02DF0E0EA0FFB1FFF93EF932A93AF8120
:10171800B885EE27A10FBE1FEC91EA9346DFAF9183
:10172800BF91EC930F5F06C0AE81BF81EE27A10F7A
:10173800BE1F2C911F5FD4CFDE01A159BF4F0D9062
:10174800BC91A02DEE27A00FBE1FEC93E1E005C0D1
:10175800E0E003C0E0E001C0E0E00E94561CEF9624
:10176800E2960895EF97EF9761970E94511C10E059
:1017780000E0FE01E158FF4FFA93EA93E0E0EA93B4
:10178800E4E1F0E0FA93EA930E945417FE01E4586A
:10179800FF4FFA93EA93E0E0EA93E3E0F0E0FA938C
:1017A800EA930E945417FE01EC5AFF4FFA93EA930A
:1017B800E0E0EA93E8E2F0E0FA93EA930E94541733
:1017C800FE013496FA93EA93E0E0EA93E0E5F0E06C
:1017D800FA93EA930E945417FE01E158FF4FFA93D7
:1017E800EA93F6DE0E2F013011F00C947E0EFE0106
:1017F800E158FF4FFA93EA93E3E7F4E1FA93EA93A7
:101808000E949717309711F40C94270EFE01E158A7
:10181800FF4FFA93EA93E6E6FAE0FA93EA930E9416
:101828009717309799F0E0E0F0E060EC7FE3E09301
:10183800AE14F093AF146093B0147093B114E4E055
:10184800F1E0E093B614F093B714EFC1FE01E1584C
:10185800FF4FFA93EA93ECE6FAE0FA93EA930E94D0
:101868009717309799F0E0E0F0E060EC7FE3E093C1
:10187800B214F093B3146093B4147093B514E4E005
:10188800F1E0E093B814F093B914CFC1FE01E15828
:10189800FF4FFA93EA93E2E7FAE0FA93EA930E9499
:1018A8009717309771F0E0E0E093AE14E093AF142F
:1018B800E093B014E093B114E093B614E093B71436
:1018C800B4C1FE01E158FF4FFA93EA93E9E7FAE061
:1018D800FA93EA930E949717309771F0E0E0E0934B
:1018E800B214E093B314E093B414E093B514E09306
:1018F800B814E093B91499C1FE01E158FF4FFA9367
:10190800EA93E0E8FAE0FA93EA930E94971730978F
:1019180011F40C94050DFE01EC5AFF4FFA93EA936B
:10192800E7E2F2E0FA93EA93E2E0F0E060E070E0E8
:101938000E942E1CE5E3F0E060E070E00E942E1C9F
:10194800E0E3F0E060E070E00E942E1CE091A41457
:10195800F091A5146091A6147091A7140E942E1CF2
:10196800E091A814F091A9146091AA147091AB1495
:101978000E942E1CE3E0F0E060E070E00E942E1C64
:10198800EDE0F0E060E070E00E942E1CEAE0F0E09C
:1019980060E070E00E942E1C80E20E94EF16A49680
:1019A80010E0FE01EC5AFF4FFA93EA930E946D177C
:1019B800A12FB0E0AE17BF0718F5FE013496FA93D1
:1019C800EA930E946D17DE011496EA0FFB1FFA9343
:1019D800EA93EBE8F1E0FA93EA93E12FF0E0DE0115
:1019E800A85ABF4FAE0FBF1FEC91FF276627772776
:1019F8000E942E1C84E00E94EF1628961F5FD1CF0C
:101A08000DC1FE01E158FF4FFA93EA93E4E8FAE0CA
:101A1800FA93EA930E949717309711F40C949A0D51
:101A2800FE01EC5AFF4FFA93EA93E7E4F2E0FA93E7
:101A3800EA93E2E0F0E060E070E00E942E1CE5E34B
:101A4800F0E060E070E00E942E1CE0E3F0E060E06F
:101A580070E00E942E1CE091B614F091B71466272E
:101A680077270E942E1CE091AE14F091AF1460917C
:101A7800B0147091B1140E942E1CE091B814F0912A
:101A8800B914662777270E942E1CE091B214F091B2
:101A9800B3146091B4147091B5140E942E1CE3E045
:101AA800F0E060E070E00E942E1CEDE0F0E060E005
:101AB80070E00E942E1CEAE0F0E060E070E00E9416
:101AC8002E1C88E20E94EF16AC9610E0FE01EC5A3C
:101AD800FF4FFA93EA930E946D17A12FB0E0AE175B
:101AE800BF0718F5FE013496FA93EA930E946D1722
:101AF800DE011496EA0FFB1FFA93EA93EBE8F1E094
:101B0800FA93EA93E12FF0E0DE01A85ABF4FAE0F37
:101B1800BF1FEC91FF27662777270E942E1C84E0C1
:101B28000E94EF1628961F5FD1CF78C0FE01E158BA
:101B3800FF4FFA93EA93E8E8FAE0FA93EA930E94EF
:101B48009717309711F40C94190EFE01EC5AFF4FB9
:101B5800FA93EA93E1E7F2E0FA93EA93E2E0F0E03D
:101B680060E070E00E942E1CE5E3F0E060E070E0C9
:101B78000E942E1CE0E3F0E060E070E00E942E1C62
:101B8800E091AC14F091AD14662777270E942E1CC3
:101B9800E3E0F0E060E070E00E942E1CEDE0F0E091
:101BA80060E070E00E942E1CEAE0F0E060E070E087
:101BB8000E942E1C8CE10E94EF16A09610E0FE01F8
:101BC800EC5AFF4FFA93EA930E946D17A12FB0E0E9
:101BD800AE17BF0718F5FE013496FA93EA930E94F0
:101BE8006D17DE011496EA0FFB1FFA93EA93EBE8F0
:101BF800F1E0FA93EA93E12FF0E0DE01A85ABF4F33
:101C0800AE0FBF1FEC91FF27662777270E942E1C77
:101C180084E00E94EF1628961F5FD1CFE1E0EA9397
:101C2800FE013596FA93EA93CCDBFE01E158FF4FAB
:101C3800FA93EA93E0E0EA93E4E1F0E0FA93EA93B6
:101C48000E94541757C0FE01E158FF4FFA93EA93D8
:101C5800E3E7F4E1FA93EA930E949717309711F0BB
:101C68000C947E0EFE01E058FF4FF081EE27DF0155
:101C7800FE01EF57FF4FE081F0E0EA0FFB1F9F01E5
:101C880010E0183078F4E12FACE7B4E1F0E0EE0FA3
:101C9800FF1FAE0FBF1F0E940B1CE217F30711F0C6
:101CA8001F5FEFCFFE01E158FF4FFA93EA93FE0161
:101CB800EF57FF4FFA93EA930E946D17FA93EA934E
:101CC800E12FA4E8B4E1F0E00E94611BAE0FBF1F52
:101CD8000E940F1C0E942E1CE12FA4E9B4E1F0E041
:101CE8000E94611BAE0FBF1F0E940F1C0E942E1C7A
:101CF8000E94F2050E94581CEF96EF96659608958B
:101D0800EF97E9971A930A93FE01EE5AFF4FFA9359
:101D1800EA93E0E0EA93E8E2F0E0FA93EA930E94BB
:101D28005417FE013296FA93EA93E0E0EA93E0E56D
:101D3800F0E0FA93EA930E945417FE01EE5AFF4F1F
:101D4800FA93EA930E94E7060E2F0130B9F510E0E6
:101D5800FE01EE5AFF4FFA93EA930E946D17A12FE6
:101D6800B0E0AE17BF0718F5FE013296FA93EA9372
:101D78000E946D17DE011296EA0FFB1FFA93EA9391
:101D8800EBE8F1E0FA93EA93E12FF0E0DE01AA5ADA
:101D9800BF4FAE0FBF1FEC91FF27662777270E9422
:101DA8002E1C84E00E94EF1628961F5FD1CFE1E039
:101DB800EA93FE013396FA93EA9303DB19810881CB
:101DC800EF96EB960895EF9721970E94511CE2E059
:101DD800E0936E14E1E1EA930E943905E1E0EA93A9
:101DE8000E943905E1E0EA930E943905EDEEEA9395
:101DF8000E9439050E94B404E63101F50E94B4043A
:101E0800ED30E1F40E94B404E130C1F410E01D307B
:101E1800A8F4E12FF0E0DE011C960E94611BEA0F96
:101E2800FB1FFF93EF930E94B404AF91BF91FF276C
:101E3800662777270E941A1C1F5FE9CFAC85BD85EE
:101E48008E859F85E8E10E94451BDF01CB01E8896B
:101E5800F9896A897B890E94661B0E94341B7F93DB
:101E68006F93FF93EF93AC89BD898E899F89E8E0D2
:101E78000E94451BAF91BF918F919F910E94341B87
:101E8800A88DB98D8A8D9B8D0E94341BE887F987B0
:101E98006A877B870E94EC19A3ECB1E880E19DE397
:101EA8000E94781AEC83FD836E837F83AC81BD81A9
:101EB8008E819F81E0E0F0E066E174E40E940B1BF4
:101EC80009F010F40C946C0FEC83FD836E837F8310
:101ED800EF81EE235AF0AC81BD818E819F81E0E0D5
:101EE800F0E068EF71E40E940B1B08F013C0AC81AE
:101EF800BD818E819F81E0E0F0E060EA70E40E949D
:101F0800781ADF01CB01E0E0F0E060E470E40E94C1
:101F1800C61A96C0EC81FD816E817F81A0E0B0E099
:101F280088EF91E40E940B1B19F010F00C94A70F96
:101F3800AC81BD818E819F81E0E0F0E062EA72E4CD
:101F48000E940B1B08F009C0EC81FD816E817F8126
:101F5800A0E0B0E080EA91E471C0EC81FD816E817F
:101F68007F81A0E0B0E082EA92E40E940B1B19F0A6
:101F780010F00C94CA0FAC81BD818E819F81E0E086
:101F8800F0E067E173E40E940B1B08F01DC0EC81D0
:101F9800FD816E817F81A0E0B0E082EA92E40E9438
:101FA800211AA0E0B0E085E193E40E94781ADF01ED
:101FB800CB01E0E0F0E06AE872E40E94C61AA0E013
:101FC800B0E08AEC92E43AC0EC81FD816E817F81B9
:101FD800A0E0B0E087E193E40E940B1B19F010F039
:101FE8000C940510AC81BD818E819F81E0E0F0E00A
:101FF80066E174E40E940B1B19F010F00C940510B4
:1020080001C021C0EC81FD816E817F81A0E0B0E03C
:1020180087E193E40E94211AA0E0B0E089E793E405
:102028000E94781ADF01CB01E0E0F0E860EE73E48B
:102038000E94C61AA0E0B0E08BE793E40E94281A39
:102048000E94B5199F01F9010E94581CEF96259628
:1020580008951A930A9300E0E3E0E7B910E8113015
:1020680098F0EA81E12311F0409A01C04098419A22
:102078008BE18A95F1F74198A12FB0E0E2E0F0E01A
:102088000E94A91B1E2FEBCF409AE2E0E7B9419AC4
:102098008BE08A95F1F7E0E03099E1E00E2F8BE0D4
:1020A8008A95F1F74198E02F19810881E6C11A93C2
:1020B8000A9300E0E2E0E7B910E8113090F0419AA5
:1020C8008BE08A95F1F73099012B8BE08A95F1F72F
:1020D8004198A12FB0E0E2E0F0E00E94A91B1E2F7A
:1020E800ECCFE3E0E7B9EA81E03011F0409801C0B5
:1020F800409A419A8BE18A95F1F74198409AE02FEE
:1021080019810881BAC1E3E0E7B9409A41988BE0A8
:102118008A95F1F7419A8BE08A95F1F740988BE020
:102128008A95F1F741988BE18A95F1F7419A8BE00E
:102138008A95F1F7409A8BE08A95F1F74198E2E0A9
:10214800E7B908951A93E3E0E7B9409A419810E097
:10215800193050F4419A85E08A95F1F7419885E065
:102168008A95F1F71F5FF4CFCEDFE2E0E7B908C048
:102178001A9310E0E7DFEEE1EA936BDF1E0FE12F21
:10218800199108951A9310E0BEDFE7E0EA9361DF42
:102198001E2FE1E0EA938BDFAB81BC81EC93E0E09A
:1021A800EA9385DFA981BA81EC93E12F18810C9419
:1021B80060170E94511C00E010E020E030E0A3DF2F
:1021C800EC81F0E0309739F4E3E0EA9342DFF0E0A5
:1021D8000E0F1F1F0AC0E130A0E0FA0731F4E5E056
:1021E800EA9337DFF0E00E0F1F1FE2E0E7B9309BFC
:1021F80001C0FDCF309B02C00F5F1F4FEC81F0E0A4
:10220800309701F520E030E0E1E0EA9350DF2E2F2F
:102218003327322F2227209378143093791420E023
:1022280030E0E1E0EA9343DF2E2F3327F901A09154
:102238007814B0917914EA2BFB2BE0937814F0937F
:10224800791422C0E130A0E0FA07F1F420E030E090
:10225800E1E0EA932CDF2E2F3327322F2227EAE7FB
:10226800F4E12083318320E030E0E1E0EA931FDFEE
:102278002E2F3327E0917A14F0917B14E22BF32B65
:10228800E0937A14F0937B14E0E0EA9310DFAD81D9
:10229800BE81EC93E02F0E94581C29960895A897B8
:1022A80084E1A4E1B0E0E6E3F1E00E945D1CA8A5AA
:1022B800B9A50E940F1CE887F9876A877B87EAA57A
:1022C800FBA56CA57DA5EC83FD836E837F83A88524
:1022D800B9858A859B85EAE0F7ED63E27CE30E9495
:1022E800781ADF01CB01E0E0F0E060E272E40E94DE
:1022F800331C0E94211A0E94291CEC81FD816E81E9
:102308007F81A2EAB7EE8BE396EB0E94781AAC8144
:10231800BD818E819F810E94781A7F936F93FF936E
:10232800EF93EC81FD816E817F81A4E5B3EE85E2B8
:102338009DE30E94781AAF91BF918F919F910E945F
:10234800281AA0E0B0E080E890EC0E94281AE88BF8
:10235800F98B6A8B7B8B0E94241CA0E0B0E088EC90
:1023680091E40E94211A7F936F93FF93EF93EC817E
:10237800FD816E817F81ACEAB5EC87EA98E30E9423
:10238800781AAAE0B7ED83E29CE30E94281AAF917D
:10239800BF918F919F910E94781AA889B9898A89DB
:1023A8009B890E94281AEC87FD876E877F87AC85FA
:1023B800BD858E859F85E0E0F0E068EC72E40E94C0
:1023C8000B1B09F010F40C94ED11EC87FD876E8758
:1023D8007F87AC85BD858E859F85EDECFCEC6CEC2C
:1023E8007DE30E940B1B20F4EC87FD876E877F87B7
:1023F8000E94241CA8A5B9A50E941A1CEC85FD857D
:102408006E857F85AE9608950E944F1C0E811F81B0
:1024180028853985002E012AE1F00E94B4045E2F38
:10242800583051F4AE81BF810A171B0720F42150A0
:1024380030400F5F1F4FF1CF5A3059F03F932F9321
:102448002F5F3F4FE52FAF91BF91EC9301501040A4
:10245800E1CFD901E0E0EC93E885F9850E94561CAC
:102468002A960895EA81EA930E943905A881B981DC
:10247800ED91FD913196FE93EE93239608951A936C
:102488000A93AA81BB8112960E940B1C309759F1BE
:10249800AA81BB8114960E940B1C8F01309761F0B2
:1024A8000230E0E01E07F0F0F80131978F01AA81B1
:1024B800BB811496ED93FC93AA81BB811296ED9192
:1024C800FD913196FE93EE933197AC81A083AA815A
:1024D800BB810E940B1CFF232AF0ED91FD913196E0
:1024E800FE93EE9306C0AA81BB81EFEFFFEFED9359
:1024F800FC93198108810C9460172497E0E0E88325
:10250800E983E0E8EA83EFE3EB830E94511CEE8560
:10251800FF85EF3FAFEFFA0759F4E885F985FA939D
:10252800EA93E4E8F2E0FA93EA930E94621748C15A
:10253800EF3FAFE7FA0759F4E885F985FA93EA938C
:10254800E5E8F2E0FA93EA930E94621739C1AB8595
:10255800A73010F0E6E0EB871B85E12F1150E03043
:1025680079F0AC81BD818E819F81E0E0F0E060E28E
:1025780071E40E94781AEC83FD836E837F83EDCF2C
:10258800EC85FD856E857F850E94401C81F430E0D6
:10259800AC81BD818E819F81E0E0F0E060E271E472
:1025A8000E94781AEC83FD836E837F837EC03B850F
:1025B800EC81FD816E817F81AC85BD858E859F858F
:1025C8000E940B1B09F010F40C941013AC81BD8110
:1025D8008E819F81E0E0F0E060E271E40E94781A69
:1025E800EC83FD836E837F83EC81FD816E817F8127
:1025F800AC85BD858E859F850E940B1B60F0EDEC38
:10260800FCEC6CEC7DE30E94781AEC87FD876E8702
:102618007F873F5FE9CF25C0EC81FD816E817F8197
:10262800AC85BD858E859F850E940B1B60F4E0E01C
:10263800F0E060E271E40E94781AEC87FD876E870B
:102648007F873150E9CFAC81BD818E819F81E0E0E9
:10265800F0E060E271E40E94781AEC83FD836E83F7
:102668007F83EC85FD856E857F85A0E0B0E080E006
:102678009FE30E94281AEC87FD876E877F87EC818D
:10268800FD816E817F81AC85BD858E859F850E9489
:102698000B1B58F0EDECFCEC6CEC7DE30E94781A17
:1026A800EC87FD876E877F873F5F10E0EB85E1173A
:1026B80010F40C94AF13AC81BD818E819F81EDEC39
:1026C800FCEC6CEC7DE30E94781AA0E0B0E080E0BE
:1026D8009FE30E94281A0E942E1C0E945F19EC8317
:1026E800FD836E837F83AC85BD858E859F850E9423
:1026F800C61A0E94B5190E2FA885B9851196A88704
:10270800B9871197E02FE05DEC93E02FFF2766274C
:1027180077270E94EE19AC81BD818E819F810E942E
:10272800781AAC85BD858E859F850E94331C0E94D2
:10273800211AEC87FD876E877F87E12F1F5FE030C6
:1027480009F0B4CFA885B9851196A887B9871197DC
:10275800EEE2EC93ABCFE885F9853196E887F98707
:102768003197AA85A08330304CF4A885B985119695
:10277800A887B9871197EDE2EC9331953A3074F058
:10278800E885F9853196E887F9873197BF01A32F46
:10279800EAE00E94911BE05DDB01EC93E885F98596
:1027A8003196E887F9873197BF01A32FEAE00E94A5
:1027B800D31BE05DDB01EC93A885B985E0E0EC93E1
:1027C8000E94581C60960895EF9761970E944F1CCD
:1027D80010E0FE01E85AFF4F0190F081E02DE887F4
:1027E800F987FE01EA5AFF4F0190F081E02DEE8350
:1027F800FF83AE81BF81E0E0F0E0ED93FC93DE0162
:10280800A45ABF4FED91FD913196FE93EE93319707
:10281800E4912E2FE03011F40C94E616E12FE0300D
:1028280069F4253211F411E008C02A93EF81F88584
:10283800FA93EA93EB85FC850995C3C2E130F1F47C
:10284800253249F42A93EF81F885FA93EA93EB85C8
:10285800FC850995B5C212E0E0E0ED8B00E02D3271
:1028680011F401E0AEC22B3219F4EBE2ED8BA9C2F0
:10287800203219F4E0E2ED8BA4C202C0E23039F450
:1028880050E013E0203311F400689BC202C0E3302B
:1028980091F4203310F02A3308F007C0AAE05A9FB9
:1028A800502DE22FE0535E0F8CC240E02E3211F41F
:1028B80014E087C20FC0E43099F4203310F02A33B3
:1028C80008F008C00062AAE04A9F402DE22FE053BA
:1028D8004E0F77C22C3619F4026015E072C204C09C
:1028E800E53011F00C94E516E22FE336B1F4FE0161
:1028F800E65AFF4F0190F081E02D3497DE01A65A89
:10290800BF4FED93FC93A481AA93EF81F885FA93C6
:10291800EA93EB85FC85099553C2E53411F0E53659
:1029280009F404C0E63611F00C940615FE017696FB
:10293800EE87FF87DE01A65ABF4F0D90BC91A02DF0
:102948000E940F1CEA87FB876C877D87FE01E65A89
:10295800FF4F0190F081E02D3497DE01A65ABF4F5A
:10296800ED93FC93AD85AA2322F0AD89AB3269F0D3
:1029780020C0EA85FB856C857D850E948219EA87DF
:10298800FB876C877D87EDE2ED8B07FF0AC0ED8939
:10299800EA93EF81F885FA93EA93EB85FC8509952C
:1029A80008C0EE85FF853196EE87FF873197AD89A0
:1029B800A08305FF46E0263671F4EA85FB856C8521
:1029C8007D850E942E1C4A93EB89FC89FA93EA9331
:1029D8000E940D180DC0EA85FB856C857D850E94D7
:1029E8002E1C4A932A93EC89FD89FA93EA9385DD94
:1029F800FE017696EE87FF87FA93EA930E946D1799
:102A08001E2F45C0E337E9F4FE01E65AFF4F019057
:102A1800F081E02D3497DE01A65ABF4FED93FC9369
:102A2800DE01A65ABF4F0D90BC91A02D14960E94AE
:102A38000B1CEE87FF87FA93EA930E946D171E2FEF
:102A48001FC0E03749F5FE01E65AFF4F0190F081BB
:102A5800E02D3497DE01A65ABF4FED93FC93DE01BB
:102A6800A65ABF4F0D90BC91A02D14960E940B1C26
:102A7800EE87FF87FA93EA930E9477171E2F086064
:102A88000F77403011F0411708F001C0142F40E0D3
:102A9800E0E0EC8B30E0AAC0E43611F0E93611F43E
:102AA800046002C0E537C1F4EAE0EC8B01FF0AC01C
:102AB800E0E0FAEC6AE97BE3E88BF98B6A8B7B8BC5
:102AC8001AE029C0E0E1F7E260E070E0E88BF98BFA
:102AD8006A8B7B8B15E01FC0E83511F4086004C0D1
:102AE800E83711F00C94E416E0E1EC8B01FF0AC022
:102AF800E0E0F0E060E070E1E88BF98B6A8B7B8BBB
:102B080018E009C0E0E0F0E160E070E0E88BF98BE4
:102B18006A8B7B8B14E0403011F00F7701C041E0E5
:102B280001FF16C0FE01E65AFF4F0190F081E02D2B
:102B38003497DE01A65ABF4FED93FC93DE01A65AE7
:102B4800BF4F0D90BC91A02D14960E940F1C31C050
:102B580002FF18C0FE01E65AFF4F0190F081E02DF8
:102B68003497DE01A65ABF4FED93FC93DE01A65AB7
:102B7800BF4F0D90BC91A02D14960E940B1C0E9473
:102B8800711B17C0FE01E65AFF4F0190F081E02D3E
:102B98003497DE01A65ABF4FED93FC93DE01A65A87
:102BA800BF4F0D90BC91A02D14960E940B1C662758
:102BB8007727EA87FB876C877D8702FF16C0AD857C
:102BC800AA2362F4EA85FB856C857D850E943D1BFE
:102BD800EA87FB876C877D87EDE2ED8BED89E03036
:102BE80019F01F5F4F5F01C00B7F342F00FD1AC023
:102BF800151710F4351708F015C007FF08C002FFB5
:102C080004C00B7F2D89115001C020E301C020E2D0
:102C18002A93EF81F885FA93EA93EB85FC85099569
:102C28005150E6CF141740F5006102FF17C00B7F23
:102C3800ED89EA93FE01E95AFF4F0190F081E02DFA
:102C4800FA93EA93FE01E55AFF4F0190F081E02DD7
:102C58000995503009F0515011504150E0E3EA9382
:102C6800EF81F885FA93EA93EB85FC850995503056
:102C780009F051504150D6CF312FEC89E030E9F4BA
:102C88003030D1F003FF06C0EE85FF852591EE8731
:102C9800FF8705C0AE85BF852D91AE87BF872A9374
:102CA800EF81F885FA93EA93EB85FC850995503016
:102CB80009F051503150E4CF74C0E889F9896A8924
:102CC8007B89AA85BB858C859D850E94AE1B2E2F8E
:102CD8002A3030F003FF02C0295C01C0295A01C024
:102CE800205D04FD32C0213360F4A889B9898A893E
:102CF8009B89A130E0E0BE07E0E08E07E0E09E0798
:102D080009F40BC0431740F4531710F000FF01C03B
:102D180027C020E207FF19C020E3006102FF15C0A9
:102D28000B7FED89EA93FE01E95AFF4F0190F0818C
:102D3800E02DFA93EA93FE01E55AFF4F0190F081E6
:102D4800E02D0995503009F051502A93EF81F8850C
:102D5800FA93EA93EB85FC850995503009F05150B8
:102D68003150E889F9896A897B89AA85BB858C8570
:102D78009D850E94ED1BEA87FB876C877D87EC8920
:102D8800A889B9898A899B89FF27662777270E949E
:102D9800AE1BE88BF98B6A8B7B8B0E94401C09F079
:102DA8008CCF00FF0DC0503059F05150E0E2EA934B
:102DB800EF81F885FA93EA93EB85FC850995F3CFC3
:102DC80010E01DCDAE81BF810E940B1C0E94561CD5
:102DD800EF966F960895FF92F82E26970E94511C41
:102DE800DE011C960E942B1B0E940B1C309719F4C5
:102DF800EFEFFFEF29C0DE0116960E942B1B8D0115
:102E0800DE011C960E942B1B0E940B1CEE83FF8385
:102E1800E0E0E887E987DE011A960E942B1B0E94F2
:102E28000B1CFA93EA931A930A93E3E4F2E1FA93F8
:102E3800EA93FE013A96FA93EA93C6DC9F01AE81C3
:102E4800BF81E0E0EC93F9010E94581C2A96FF909C
:102E58000895FF92F82E26971A930A93DE01149686
:102E68000E942B1B8D01E0E0EC83ED83EE83EF8362
:102E7800DE0118960E942B1B0E940B1CFA93EA9302
:102E88001A930A93E6E3F2E1FA93EA93FE0138967D
:102E9800FA93EA9399DC198108812896FF9008959E
:102EA800B981A881109631F0FC81EB816A81619328
:102EB8001197E9F7EB81FC8125960895E991F9913D
:102EC800A991B991CD0105900D920020E1F7FC017F
:102ED8000895A991B991EE27FF276D91662311F006
:102EE8003196FBCF0895AA27BB27E991F991059060
:102EF800002011F01196FBCFFD010895BB81AA8136
:102F08006C91662361F0F981E881C895002029F069
:102F180031966015D1F7FD0104C01196F1CFEE2767
:102F2800FF270C947419AA81BB81CD01E881F9812E
:102F38007191772311F4FC0109C06D916717C1F3F2
:102F48000196DC01662391F7EE27FF270C9474198C
:102F5800BB81AA81882799276D91662349F0F98159
:102F6800E8810590002021F06015D9F70196F4CF8B
:102F7800FC010C9474191A930A93EC81FD81309723
:102F880079F4E091BA14F091BB14309719F4E0E0A9
:102F9800F0E03BC0E091BA14F091BB14EC83FD83E0
:102FA800EC81FD81FA93EA93EC81FD81FA93EA932F
:102FB8000E94AC17AC81BD81EA0FFB1FEC83FD8337
:102FC800AC81BD81EC91E03041F4E0E0E093BA14CB
:102FD800E093BB14E0E0F0E018C0EC81FD81FA93C7
:102FE800EA93EC81FD81FA93EA930E9482178F019C
:102FF800309729F0D8010F5F1F4FE0E0EC93009362
:10300800BA141093BB14EC81FD81198108812696AE
:1030180008952497E0E0E883E983EA83EFE3EB830C
:103028001A930A93EB85FC85EF3FAFEFFA0759F443
:10303800EE81FF81FA93EA93ECE8F2E0FA93EA93DF
:103048000E94621705C1EF3FAFE7FA0759F4EE8116
:10305800FF81FA93EA93EDE8F2E0FA93EA930E948B
:103068006217F6C0AC85AA2392F4E985FA856B85C8
:103078007C850E948219E987FA876B877C87AE81F5
:10308800BF811196AE83BF831197EDE2EC93A885BB
:10309800A73010F0E6E0E8871885E12F1150E030FE
:1030A80079F0AA81BB818C819D81EDECFCEC6CEC04
:1030B8007DE30E94781AEA83FB836C837D83EDCFDE
:1030C800EA81FB816C817D81A985BA858B859C8588
:1030D8000E94281AE987FA876B877C8710E0E0E06E
:1030E800F0E060E87FE3EA83FB836C837D83EA8119
:1030F800FB816C817D81A985BA858B859C850E9421
:103108000B1B80F0AA81BB818C819D81E0E0F0E0FF
:1031180060E271E40E94781AEA83FB836C837D8302
:103128001F5FE5CF103049F4AE81BF811196AE83A1
:10313800BF831197E0E3EC9349C0E12F1150E030D1
:1031480011F40C94EA18AA81BB818C819D81EDEC65
:10315800FCEC6CEC7DE30E94781AA0E0B0E080E023
:103168009FE30E94281A0E942E1C0E945F19EA837E
:10317800FB836C837D83A985BA858B859C850E949A
:10318800C61A0E94B5190E2FAE81BF811196AE8363
:10319800BF831197E02FE05DEC93E02FF0E0AA8168
:1031A800BB818C819D810E94711B0E94EE190E9437
:1031B800781AA985BA858B859C850E94331C0E9444
:1031C800211AE987FA876B877C87B7CFE885E030D3
:1031D80009F43AC0AE81BF811196AE83BF831197BF
:1031E800EEE2EC93E885E150E887EF5F69F1A985A5
:1031F800BA858B859C85E0E0F0E060E271E40E948E
:10320800781AE987FA876B877C870E94B5190E2F91
:10321800AE81BF811196AE83BF831197E02FE05D29
:10322800EC93E02FF0E0A985BA858B859C850E94F8
:10323800711B0E94EE190E94331C0E94211AE98713
:10324800FA876B877C87CECFAE81BF81E0E0EC93B5
:10325800198108812D9608957B816A81F981E88119
:1032680077FB770F67FD7160972F9E5781F078F095
:10327800983190F4AA27BB27882708948795B79593
:10328800A7959A95D1F7EA23FB23682305C0E8940C
:103298007727EE27FF2766276F77769508F460680B
:1032A80077F9A991B99189919991EA17FB0768076C
:1032B800790797FB08950E94241C0E942E1C0E94E7
:1032C80030190E94291C19F40E94241C09C0E6F731
:1032D8000E94241CA0E0B0E080E89FE30E94211A2D
:1032E80024960895E991F991309639F080EA9FE0A3
:1032F8000197F1F7A8953197C9F70895309760407D
:10330800704009F070580895552342F4503811F46C
:10331800E0FF04C03196691F791F6BF050E857270A
:1033280011F45F93CFC05F3F31F0660F000C5795E3
:103338006795752F08955F9300200AF0CFC0C8C025
:1033480050E8192E1522880F991F9527550F879534
:1033580050E8072E0522660F771F7527550F6795CA
:103368000895689401C0E8945F93F2DF703818F00C
:103378007F3F08F4A7C056E1571BAAF4519558306F
:103388000EF4593030F0EFEFFFEF6FEF7FE777F98A
:103398001AC077275523B9F0EE0FFF1F661F771F56
:1033A8005A95D1F710C07727583028F0EF2FF62F0D
:1033B800672F5850F9CF552331F076956795F795D3
:1033C800E7955A95D1F700200AF453D15F910895F3
:1033D800689401C0E894309760407040B1F00024D0
:1033E80026F0772312F4009444D1172E7EE11120A1
:1033F80032F07A95EE0FFF1F661F111CF9CFEF2FE1
:10340800F62F612D5F938ADF5F9108954F93AF0187
:10341800FD01DA01AB01BC01CA01402D012C142EBB
:103428004F910895EA0FFB1F681F0895E095F095E6
:103438006095EF5FFF4F6F4F08955F9381DF90387E
:1034480071F150E8152604C05F937ADF903839F19E
:10345800703821F1572F591B2BF112F4D7DFFACF0F
:10346800583118F0AA27BB278827583028F0AB2FE7
:10347800B82F88275850F9CF552329F08695B79546
:10348800A7955A95D9F7502D512572F0CBDF38F40E
:103498006795F795E795739513F420C0B7DF3EDF7E
:1034A8005F910895D8F7FBCFEA1BFB0B680B51F02F
:1034B80010F40094BBDF662392F3EE0FFF1F661F24
:1034C8007A95CBF7EE27FF27662777275F91089530
:1034D800EFEFFFEF6FE77FEF5F910895EFEFFFEFFB
:1034E8006FE77FE75F9108955F932ADF703851F3A4
:1034F800903841F301240894791F23F41CF3002029
:103508003AF3ECCF0F921F932F933F934F931127CA
:1035180022279927689FA0018F9F302D410D591FA1
:103528006B9F300D411D591F8E9F27D0BF9F25D0FF
:103538006A9F23D0BE9F1DD0AF9F1BD0AE9F110D99
:10354800291F391F491F591FE32FF42F652F522FA9
:103558004F913F912F911F910F9066232AF0550F9D
:10356800EE1FFF1F661F02C073954BF2CDDE5F9101
:103578000895100D211D391F02C0200D311D491F4E
:10358800591F08955F93DCDE703821F411200AF486
:103598009FCFA4CF903809F495CF01240894970BB6
:1035A8001BF4D4F30020F3CF792F1F932F933F936D
:1035B8004F9311241127222733274427552790E2B8
:1035C800AE17BF078607410730F0AE1BBF0B860B4F
:1035D800410B089401C08894551F221F331F111CEA
:1035E800AA1FBB1F881F441F9A9551F7F901612D27
:1035F8004F913F912F911F91662332F0550FEE1F87
:10360800FF1F661F7A9543F27FDE5F910895992325
:103618009AF0772342F0971748F029F4AE17BF07BE
:10362800860720F031F09894889408959894089427
:1036380008951894889408957723C2F7971798F3F4
:10364800A9F7EA17FB07680788F399F3ECCF00247A
:10365800AF0DB01D0895EA1BFB0B680B790B08959D
:10366800EA2BFB2B682B792B0895F195E195F04017
:103678000895F09560957095E195FF4F6F4F7F4FD6
:103688000895EE230E2EFD01BC0131F0EE0FFF1F51
:10369800661F771F0A94D1F70895EE230E2EFD01B9
:1036A800BC0131F075956795F795E7950A94D1F7C0
:1036B8000895EE0FFF1FEE0FFF1FEE0FFF1FEE0F17
:1036C800FF1F08956E2F7F2FE0E0F0E00895FE2F92
:1036D800FF0FFF0B6F2F7F2F08956F2F660F660B5D
:1036E800762F0895FA9FF02DEB9FF00DEA9FE02DBD
:1036F800F10D08957ED0F6DF0EF4B7DF08950024AB
:1037080098E0AA0F001C0E1A10F40E0E01C0A1605A
:103718009A95B9F7EA2FA02D08955FD0F0DF0EF43F
:10372800E19508950024112490E1AA0FBB1F001C05
:10373800111C0E1A1F0A18F40E0E1F1E01C0A160DC
:103748009A9599F7FD01D001089553D0EBDF0EF457
:103758008CDF08953F934F935F93002411244427EF
:10376800552730E2AA0FBB1F881F991F001C111C88
:10377800441F551F0E1A1F0A460B570B28F40E0E2E
:103788001F1E461F571F01C0A1603A9559F7FD013A
:10379800BC01D001CA015F914F913F910895E8940F
:1037A800A7FF02C0A1956894E7FDE195A8DFEA2F7D
:1037B8000EF4E1950895E894B7FF04C0A095B0957C
:1037C80011966894F7FD51DFADDFFD010EF44DDF72
:1037D8000895C0DFFD01BC010895E894E7FF02C029
:1037E800E1956894A7FF04C0A19500F8039400FA36
:1037F8000895E894F7FF02C038DF6894B7FF06C061
:10380800A095B095119600F8039400FA0895ED91EB
:10381800FC9111970895ED91FD916D917C9113970D
:103828000895ED91FD916D917D910895ED93FD932E
:103838006D937C9308957E936E93FE93EE93089513
:10384800E881F9816A817B810895E883F9836A8335
:103858007B8308957A936A93FA93EA930895182ECE
:10386800862F612D192E972F712D1B2EBF2FF12D0D
:103878001A2EAE2FE12D08953097604070400895BC
:1038880000240A160B06080609060895AE17BF0796
:103898008607970708955A934A933A932A931A9357
:1038A8000A9308955D814C813B812A8119810881A1
:1038B8000895AC0FBD1F05900D928A95E1F7089504
:00000001FF
