:0A0000000C94FE000C9400000C9418
:10000A0000000C9400000C9400000C9400000C9466
:10001A0000000C9400000C9400000C9400000C9456
:10002A0000000C9400000C9400000C9400000C9446
:10003A0000000C9400000C9400000C9400000C9436
:10004A0000000C9400000C9400000C9400000C9426
:10005A0000000C94AF010C9400000C943C010C9429
:10006A0000000C9400000C9400000C9400000C9406
:10007A0000000C9400000C9400000C9400000C94F6
:10008A0000000C9400000C945A010C9400000C948B
:10009A0000000C9400000C9400000C9400000C94D6
:1000AA0000000C9400000C9400000C9400000C94C6
:1000BA0000000C9400000C9400000C9400000C94B6
:1000CA0000000C947E010C9400000C9400000C9427
:1000DA0000000C9400000C9400000000C03F0000D7
:1000EA0004013A500025632563256354252B3034D7
:1000FA002E3166482530342E316633562530337515
:10010A00492530332E316635562530337549253029
:10011A00332E316644253033752563256325630004
:10012A003A4F4E334B003A4F4E354B003A4F464604
:10013A00334B003A4F4646354B003A544800256344
:10014A002563256354252B30342E316648253034F7
:10015A002E3166256325632563003A5649002563D7
:10016A0025632563335625303375492530332E31BF
:10017A0066355625303375492530332E3166256369
:10018A0025632563003A44002563256325634425D6
:10019A0030337525632563256300256325633A009B
:1001AA002D4E414E000001002D4E414E000004002C
:1001BA00390AE4000300000AEC000600030A2A01D7
:1001CA000600090A300107000F0A36010700160A5D
:1001DA003D0104001D0A44010400210A64010300D0
:1001EA00250A8F0104000500E80001003F0BB00159
:1001FA000000F894EE27EFBBF1E0F5BFE5BFE0930E
:10020A007400E0937500F8E1A895A4B7A77FA4BF8E
:10021A00F0936000E09360008DE0A2E0BB27ED93CD
:10022A008A95E9F780E090E2A0E0B2E0ED930197C9
:10023A00E9F7E8EBF1E085919591009761F0A591D6
:10024A00B59105901590BF01F00105900D920197A7
:10025A00E1F7FB01F0CF8BBF8CBFE0E0EEBBEFEF25
:10026A00EDBFE1E2EEBFC0E0DAE00C94B904EA9334
:10027A00FA93EFB7EA931A930A931091C000009188
:10028A00C600E12FEC7181F4EA2DF0E0E35CF54F52
:10029A000083A394E4E6EA1509F4AA24C394E4E6E5
:1002AA00EC1511F4CC24F09A1DC0EA93FA93EFB737
:1002BA00EA931A930A931091C8000091CE00E12F95
:1002CA00EC7181F4EB2DF0E0EF55F54F0083B39418
:1002DA00E4E6EB1509F4BB24D394E4E6ED1511F436
:1002EA00DD24F19A09911991E991EFBFF991E99108
:1002FA001895AA93EA93FA93EFB7EA931A930A9393
:10030A001091D0000091D600E12FEC71D9F4E09160
:10031A00370BF0E0EB5FF44F0083A091370BAF5F30
:10032A00A093370BA23319F4E0E0E093370BA091C6
:10033A00390BAF5FA093390BA23321F4E0E0E093CD
:10034A00390BF29A09911991E991EFBFF991E99163
:10035A00A99118956A937A93AA93BA93EA93FA930E
:10036A00EFB7EA93ABE3BBE00E94180FEF5FFF4FD2
:10037A006F4F7F4F0E941D0FE991EFBFF991E991ED
:10038A00B991A9917991699118951A93E0913A0BCB
:10039A00F0E0309789F4CC20F1F3E92DF0E0E35C4A
:1003AA00F54F10819394E4E6E91509F49924F89439
:1003BA00CA947894E12F35C0E130A0E0FA0789F4B5
:1003CA00DD20F1F3EE2DF0E0EF55F54F1081E394C7
:1003DA00E4E6EE1509F4EE24F894DA947894E12F21
:1003EA0020C0E230A0E0FA07E1F4E091390BE030F6
:1003FA00E1F3E091380BF0E0EB5FF44F1081A0914C
:10040A00380BAF5FA093380BA23319F4E0E0E09306
:10041A00380BF894E091390BE150E093390B78945A
:10042A00E12F19910895E0913A0BF0E0309741F4E9
:10043A00E091C000E072E1F3E881E093C60017C0E2
:10044A00E130A0E0FA0741F4E091C800E072E1F37C
:10045A00E881E093CE000BC0E230A0E0FA0739F45D
:10046A00E091D000E072E1F3E881E093D6002196B2
:10047A000895E0913A0BF0E0309711F4EC2D0CC09E
:10048A00E130A0E0FA0711F4ED2D06C0E230A0E059
:10049A00FA0721F4E091390BF0E0089508952A97BC
:1004AA001A930A93E0E0E0933A0BE3DF369710F4ED
:1004BA000C9460046ADF0E2F023011F00C94600471
:1004CA0010E063DF0E2FE12FF0E0DE011296EA0F53
:1004DA00FB1F00831F5F0330A1F7FE013296FA93D8
:1004EA00EA93E8E2FAE0FA93EA930E943A0B309729
:1004FA0011F40C944804FE013296FA93EA93E0E070
:10050A00FAE0FA93EA930E943A0B309711F40C94AA
:10051A00F502EFEEF0E0FA93EA93E2E0F0E060E051
:10052A0070E00E94310FE5E3F0E060E070E00E94C5
:10053A00310FE1E3F0E060E070E00E94310FE091FA
:10054A002D0AF0912E0A60912F0A7091300A0E94AA
:10055A00310FE091310AF091320A6091330A7091B9
:10056A00340A0E94310FE52DF62D662777270E945F
:10057A00310FE091350AF091360A6091370A70918D
:10058A00380A0E94310FE72DF82D662777270E9437
:10059A00310FE091390AF0913A0A60913B0A709161
:1005AA003C0A0E94310FE32DF42D662777270E941B
:1005BA00310FE3E0F0E060E070E00E94310FEDE01F
:1005CA00F0E060E070E00E94310FEAE0F0E060E005
:1005DA0070E00E94310F84E30E94E50AE69652C158
:1005EA00FE013296FA93EA93E3E0FAE0FA93EA9389
:1005FA000E943A0B309789F0E0E0F0E060EC7FE38C
:10060A00E093350AF093360A6093370A7093380AF2
:10061A00E4E0F1E05E2E6F2E35C1FE013296FA93C8
:10062A00EA93E9E0FAE0FA93EA930E943A0B3097E8
:10063A0089F0E0E0F0E060EC7FE3E093390AF093C0
:10064A003A0A60933B0A70933C0AE4E0F1E07E2E9A
:10065A008F2E18C1FE013296FA93EA93EFE0FAE080
:10066A00FA93EA930E943A0B309761F0E0E0E09344
:10067A00350AE093360AE093370AE093380A55249C
:10068A00662400C1FE013296FA93EA93E6E1FAE0A3
:10069A00FA93EA930E943A0B309761F0E0E0E09314
:1006AA00390AE0933A0AE0933B0AE0933C0A77243A
:1006BA008824E8C0FE013296FA93EA93EDE1FAE063
:1006CA00FA93EA930E943A0B309711F40C94AE0312
:1006DA00E8E4F1E0FA93EA93E2E0F0E060E070E047
:1006EA000E94310FE5E3F0E060E070E00E94310F14
:1006FA00E1E3F0E060E070E00E94310FE0912D0A42
:10070A00F0912E0A60912F0A7091300A0E94310FDF
:10071A00E091310AF091320A6091330A7091340AF9
:10072A000E94310FE3E0F0E060E070E00E94310FD8
:10073A00EDE0F0E060E070E00E94310FEAE0F0E006
:10074A0060E070E00E94310F80E20E94E50AA29602
:10075A0099C0FE013296FA93EA93E1E2FAE0FA933B
:10076A00EA930E943A0B309711F40C940904E8E6D4
:10077A00F1E0FA93EA93E2E0F0E060E070E00E94D0
:10078A00310FE5E3F0E060E070E00E94310FE1E351
:10079A00F0E060E070E00E94310FE52DF62D66274B
:1007AA0077270E94310FE091350AF091360A60915D
:1007BA00370A7091380A0E94310FE72DF82D662703
:1007CA0077270E94310FE091390AF0913A0A609135
:1007DA003B0A70913C0A0E94310FE3E0F0E060E0CE
:1007EA0070E00E94310FEDE0F0E060E070E00E94FE
:1007FA00310FEAE0F0E060E070E00E94310F88E239
:10080A000E94E50AAA963EC0FE013296FA93EA933E
:10081A00E5E2FAE0FA93EA930E943A0B309791F1F3
:10082A00E2E9F1E0FA93EA93E2E0F0E060E070E0F6
:10083A000E94310FE5E3F0E060E070E00E94310FC2
:10084A00E1E3F0E060E070E00E94310FE32DF42D67
:10085A00662777270E94310FE3E0F0E060E070E05E
:10086A000E94310FEDE0F0E060E070E00E94310F8D
:10087A00EAE0F0E060E070E00E94310F8CE10E9453
:10088A00E50A6E960CC0FE013296FA93EA93E8E204
:10089A00FAE0FA93EA930E943A0B309761F4FE0168
:1008AA003296FA93EA93E0E0EA93EAE0F0E0FA9308
:1008BA00EA930E940C0B198108812C960895E0E8AE
:1008CA00E0936100E0E0E0936100E4BDE3E0E5BDB0
:1008DA00E0E0E6BDE7BDE8BDE1E0E0936E00E0E000
:1008EA00E093C000E8E9E093C100E6E0E093C200CB
:1008FA00E0E0E093C500E7E6E093C400E0E0E093BF
:10090A00C800E8E9E093C900E6E0E093CA00E0E045
:10091A00E093CD00E7E6E093CC00E0E0E093D0007E
:10092A00E8E9E093D100E6E0E093D200E0E0E0936A
:10093A00D500E7E6E093D400E0E8E0BFE0E0E0932A
:10094A007B00EFE0E0937E00E0E0E0937D00E0E4EE
:10095A00E0937C00E4EAE0937A00E0917B00E87F90
:10096A00E0937B00789408952497A9DFE8E2FAE0FF
:10097A00FA93EA93E4EAF1E0FA93EA93E5E3F0E022
:10098A0060E070E00E94310FE1E3F5E360E070E0BF
:10099A000E94310F88E00E94A70A2C96E0E0E093BB
:1009AA003B0BE0933C0BE0933D0BE0933E0BE09155
:1009BA003B0BF0913C0B60913D0B70913E0B0E94FA
:1009CA002C0F0E94270FE0913B0BF0913C0B60919A
:1009DA003D0B70913E0B0E94820EE739AAE3FA079B
:1009EA00A0E06A07A0E07A0760F30E94270FE0916F
:1009FA003B0BF0913C0B60913D0B70913E0B0E94BA
:100A0A00820EEF31AEE4FA07A0E06A07A0E07A07A7
:100A1A0010F40C94EB050E94720C8F01F8010E94ED
:100A2A00950E0E94410DAAE9B9E989E19FE30E9466
:100A3A00CB0DDF01CB01E0E0FEEF6FEF76E40E9421
:100A4A00190EA6E6B6E686ED90E40E947B0DE093C9
:100A5A002D0AF0932E0A60932F0A7093300AF80138
:100A6A000E94950E0E94410DA0E0B0E080EA90E459
:100A7A000E94CB0DDF01CB01E0E0FEEF6FEF76E4E1
:100A8A000E94190EA0E0B0E08CE592E40E947B0D72
:100A9A00E093310AF093320A6093330A7093340A6E
:100AAA00F8010E94950E0E94410DA0E0B0E080EA94
:100ABA0090E40E94CB0DDF01CB01E0E0FEEF6FEF87
:100ACA0076E40E94190EA0E0B0E082E892E40E9467
:100ADA007B0D0E94080D3E2E4F2EEFEEF0E0FA93AA
:100AEA00EA93E2E0F0E060E070E00E94310FE5E3B3
:100AFA00F0E060E070E00E94310FE1E3F0E060E0D6
:100B0A0070E00E94310FE0912D0AF0912E0A609157
:100B1A002F0A7091300A0E94310FE091310AF09148
:100B2A00320A6091330A7091340A0E94310FE52D1E
:100B3A00F62D662777270E94310FE091350AF0914A
:100B4A00360A6091370A7091380A0E94310FE72DF0
:100B5A00F82D662777270E94310FE091390AF09124
:100B6A003A0A60913B0A70913C0A0E94310FE32DC8
:100B7A00F42D662777270E94310FE3E0F0E060E06A
:100B8A0070E00E94310FEDE0F0E060E070E00E945A
:100B9A00310FEAE0F0E060E070E00E94310F84E398
:100BAA000E94E50AE696E0E0E0933B0BE0933C0BFB
:100BBA00E0933D0BE0933E0BE0913B0BF0913C0B35
:100BCA0060913D0B70913E0B0E942C0F68DC0DCF9B
:100BDA00FFCFEA81EA930E941802A881B981ED91B8
:100BEA00FD913196FE93EE93239608951A930A93F4
:100BFA00AA81BB8112960E940E0F309759F1AA81E1
:100C0A00BB8114960E940E0F8F01309761F002305B
:100C1A00E0E01E07F0F0F80131978F01AA81BB814D
:100C2A001496ED93FC93AA81BB811296ED91FD91E6
:100C3A003196FE93EE933197AC81A083AA81BB8152
:100C4A000E940E0FFF232AF0ED91FD913196FE933B
:100C5A00EE9306C0AA81BB81EFEFFFEFED93FC9301
:100C6A00198108810C94180B2497E0E0E883E98342
:100C7A00E0E8EA83EFE3EB830E94490FEE85FF8504
:100C8A00EF3FAFEFFA0759F4E885F985FA93EA934B
:100C9A00EAEAF1E0FA93EA930E941A0B48C1EF3F9D
:100CAA00AFE7FA0759F4E885F985FA93EA93EBEA8C
:100CBA00F1E0FA93EA930E941A0B39C1AB85A73087
:100CCA0010F0E6E0EB871B85E12F1150E03079F058
:100CDA00AC81BD818E819F81E0E0F0E060E271E449
:100CEA000E94CB0DEC83FD836E837F83EDCFEC8571
:100CFA00FD856E857F850E94430F81F430E0AC81CB
:100D0A00BD818E819F81E0E0F0E060E271E40E94A3
:100D1A00CB0DEC83FD836E837F837EC03B85EC81A4
:100D2A00FD816E817F81AC85BD858E859F850E9400
:100D3A005E0E09F010F40C94C806AC81BD818E8158
:100D4A009F81E0E0F0E060E271E40E94CB0DEC8369
:100D5A00FD836E837F83EC81FD816E817F81AC850B
:100D6A00BD858E859F850E945E0E60F0EDECFCECE1
:100D7A006CEC7DE30E94CB0DEC87FD876E877F8745
:100D8A003F5FE9CF25C0EC81FD816E817F81AC8513
:100D9A00BD858E859F850E945E0E60F4E0E0F0E0DE
:100DAA0060E271E40E94CB0DEC87FD876E877F8736
:100DBA003150E9CFAC81BD818E819F81E0E0F0E0C6
:100DCA0060E271E40E94CB0DEC83FD836E837F8326
:100DDA00EC85FD856E857F85A0E0B0E080E09FE32D
:100DEA000E947B0DEC87FD876E877F87EC81FD81F2
:100DFA006E817F81AC85BD858E859F850E945E0E42
:100E0A0058F0EDECFCEC6CEC7DE30E94CB0DEC872A
:100E1A00FD876E877F873F5F10E0EB85E11710F44F
:100E2A000C946707AC81BD818E819F81EDECFCEC4F
:100E3A006CEC7DE30E94CB0DA0E0B0E080E09FE384
:100E4A000E947B0D0E94310F0E94BE0CEC83FD8331
:100E5A006E837F83AC85BD858E859F850E94190E22
:100E6A000E94080D0E2FA885B9851196A887B98703
:100E7A001197E02FE05DEC93E02FFF276627772795
:100E8A000E94410DAC81BD818E819F810E94CB0D54
:100E9A00AC85BD858E859F850E94360F0E94740D94
:100EAA00EC87FD876E877F87E12F1F5FE03009F0AF
:100EBA00B4CFA885B9851196A887B9871197EEE2AC
:100ECA00EC93ABCFE885F9853196E887F9873197B6
:100EDA00AA85A08330304CF4A885B9851196A887D5
:100EEA00B9871197EDE2EC9331953A3074F0E885C1
:100EFA00F9853196E887F9873197BF01A32FEAE090
:100F0A000E94C80EE05DDB01EC93E885F985319615
:100F1A00E887F9873197BF01A32FEAE00E94F20E12
:100F2A00E05DDB01EC93A885B985E0E0EC930E94D3
:100F3A00500F60960895EF9761970E94470F10E04F
:100F4A00FE01E85AFF4F0190F081E02DE887F9870A
:100F5A00FE01EA5AFF4F0190F081E02DEE83FF83F4
:100F6A00AE81BF81E0E0F0E0ED93FC93DE01A45A8C
:100F7A00BF4FED91FD913196FE93EE933197E49137
:100F8A002E2FE03011F40C949E0AE12FE03069F420
:100F9A00253211F411E008C02A93EF81F885FA93FB
:100FAA00EA93EB85FC850995C3C2E130F1F4253259
:100FBA0049F42A93EF81F885FA93EA93EB85FC8545
:100FCA000995B5C212E0E0E0ED8B00E02D3211F494
:100FDA0001E0AEC22B3219F4EBE2ED8BA9C220324A
:100FEA0019F4E0E2ED8BA4C202C0E23039F450E019
:100FFA0013E0203311F400689BC202C0E33091F47D
:10100A00203310F02A3308F007C0AAE05A9F502D67
:10101A00E22FE0535E0F8CC240E02E3211F414E04E
:10102A0087C20FC0E43099F4203310F02A3308F055
:10103A0008C00062AAE04A9F402DE22FE0534E0FFB
:10104A0077C22C3619F4026015E072C204C0E5308A
:10105A0011F00C949D0AE22FE336B1F4FE01E65A30
:10106A00FF4F0190F081E02D3497DE01A65ABF4F61
:10107A00ED93FC93A481AA93EF81F885FA93EA93FE
:10108A00EB85FC85099553C2E53411F0E53609F480
:10109A0004C0E63611F00C94BE08FE017696EE877F
:1010AA00FF87DE01A65ABF4F0D90BC91A02D0E946A
:1010BA00120FEA87FB876C877D87FE01E65AFF4F8E
:1010CA000190F081E02D3497DE01A65ABF4FED93CF
:1010DA00FC93AD85AA2322F0AD89AB3269F020C01A
:1010EA00EA85FB856C857D850E94D50CEA87FB879E
:1010FA006C877D87EDE2ED8B07FF0AC0ED89EA93E5
:10110A00EF81F885FA93EA93EB85FC85099508C087
:10111A00EE85FF853196EE87FF873197AD89A083EB
:10112A0005FF46E0263671F4EA85FB856C857D85E8
:10113A000E94310F4A93EB89FC89FA93EA930E9441
:10114A004F0B0DC0EA85FB856C857D850E94310FAA
:10115A004A932A93EC89FD89FA93EA9385DDFE0185
:10116A007696EE87FF87FA93EA930E94250B1E2F45
:10117A0045C0E337E9F4FE01E65AFF4F0190F081DA
:10118A00E02D3497DE01A65ABF4FED93FC93DE01A2
:10119A00A65ABF4F0D90BC91A02D14960E940E0F17
:1011AA00EE87FF87FA93EA930E94250B1E2F1FC032
:1011BA00E03749F5FE01E65AFF4F0190F081E02D34
:1011CA003497DE01A65ABF4FED93FC93DE01A65A6F
:1011DA00BF4F0D90BC91A02D14960E940E0FEE8762
:1011EA00FF87FA93EA930E942F0B1E2F08600F774E
:1011FA00403011F0411708F001C0142F40E0E0E040
:10120A00EC8B30E0AAC0E43611F0E93611F4046040
:10121A0002C0E537C1F4EAE0EC8B01FF0AC0E0E066
:10122A00FAEC6AE97BE3E88BF98B6A8B7B8B1AE031
:10123A0029C0E0E1F7E260E070E0E88BF98B6A8BA5
:10124A007B8B15E01FC0E83511F4086004C0E8374D
:10125A0011F00C949C0AE0E1EC8B01FF0AC0E0E07B
:10126A00F0E060E070E1E88BF98B6A8B7B8B18E029
:10127A0009C0E0E0F0E160E070E0E88BF98B6A8B8E
:10128A007B8B14E0403011F00F7701C041E001FF81
:10129A0016C0FE01E65AFF4F0190F081E02D349707
:1012AA00DE01A65ABF4FED93FC93DE01A65ABF4F4B
:1012BA000D90BC91A02D14960E94120F31C002FF0E
:1012CA0018C0FE01E65AFF4F0190F081E02D3497D5
:1012DA00DE01A65ABF4FED93FC93DE01A65ABF4F1B
:1012EA000D90BC91A02D14960E940E0F0E94950E8F
:1012FA0017C0FE01E65AFF4F0190F081E02D3497A6
:10130A00DE01A65ABF4FED93FC93DE01A65ABF4FEA
:10131A000D90BC91A02D14960E940E0F6627772778
:10132A00EA87FB876C877D8702FF16C0AD85AA23F3
:10133A0062F4EA85FB856C857D850E94870EEA87C3
:10134A00FB876C877D87EDE2ED8BED89E03019F044
:10135A001F5F4F5F01C00B7F342F00FD1AC01517A6
:10136A0010F4351708F015C007FF08C002FF04C0C3
:10137A000B7F2D89115001C020E301C020E22A937E
:10138A00EF81F885FA93EA93EB85FC85099551502C
:10139A00E6CF141740F5006102FF17C00B7FED89F5
:1013AA00EA93FE01E95AFF4F0190F081E02DFA938A
:1013BA00EA93FE01E55AFF4F0190F081E02D09956D
:1013CA00503009F0515011504150E0E3EA93EF8157
:1013DA00F885FA93EA93EB85FC850995503009F074
:1013EA0051504150D6CF312FEC89E030E9F43030FA
:1013FA00D1F003FF06C0EE85FF852591EE87FF87B2
:10140A0005C0AE85BF852D91AE87BF872A93EF8130
:10141A00F885FA93EA93EB85FC850995503009F033
:10142A0051503150E4CF74C0E889F9896A897B89BF
:10143A00AA85BB858C859D850E94CD0E2E2F2A30CC
:10144A0030F003FF02C0295C01C0295A01C0205DA7
:10145A0004FD32C0213360F4A889B9898A899B893D
:10146A00A130E0E0BE07E0E08E07E0E09E0709F465
:10147A000BC0431740F4531710F000FF01C027C0F8
:10148A0020E207FF19C020E3006102FF15C00B7FAD
:10149A00ED89EA93FE01E95AFF4F0190F081E02DB0
:1014AA00FA93EA93FE01E55AFF4F0190F081E02D8D
:1014BA000995503009F051502A93EF81F885FA9333
:1014CA00EA93EB85FC850995503009F0515031506B
:1014DA00E889F9896A897B89AA85BB858C859D8576
:1014EA000E94FE0EEA87FB876C877D87EC89A889B4
:1014FA00B9898A899B89FF27662777270E94CD0E9B
:10150A00E88BF98B6A8B7B8B0E94430F09F08CCF97
:10151A0000FF0DC0503059F05150E0E2EA93EF81DC
:10152A00F885FA93EA93EB85FC850995F3CF10E0E9
:10153A001DCDAE81BF810E940E0F0E944E0FEF9605
:10154A006F960895FF92F82E26970E94490FDE01A2
:10155A001C960E947E0E0E940E0F309719F4EFEF30
:10156A00FFEF29C0DE0116960E947E0E8D01DE0174
:10157A001C960E947E0E0E940E0FEE83FF83E0E00F
:10158A00E887E987DE011A960E947E0E0E940E0FF6
:10159A00FA93EA931A930A93EBEFF5E0FA93EA9334
:1015AA00FE013A96FA93EA93C6DC9F01AE81BF81A7
:1015BA00E0E0EC93F9010E94500F2A96FF900895FB
:1015CA00FF92F82E26971A930A93DE0114960E9428
:1015DA007E0E8D01E0E0EC83ED83EE83EF83DE0186
:1015EA0018960E947E0E0E940E0FFA93EA931A939F
:1015FA000A93EEEEF5E0FA93EA93FE013896FA932F
:10160A00EA9399DC198108812896FF900895B98197
:10161A00A881109631F0FC81EB816A816193119760
:10162A00E9F7EB81FC8125960895E991F991A99151
:10163A00B991CD0105900D920020E1F7FC010895C2
:10164A00A991B991EE27FF276D91662311F0319682
:10165A00FBCF0895AA27BB27E991F99105900020AD
:10166A0011F01196FBCFFD010895AA81BB81CD012E
:10167A00E881F9817191772311F4FC0109C06D9118
:10168A006717C1F30196DC01662391F7EE27FF275E
:10169A000C94D30C2497E0E0E883E983EA83EFE330
:1016AA00EB831A930A93EB85FC85EF3FAFEFFA07BA
:1016BA0059F4EE81FF81FA93EA93E2EBF1E0FA93AF
:1016CA00EA930E941A0B05C1EF3FAFE7FA0759F4F4
:1016DA00EE81FF81FA93EA93E3EBF1E0FA93EA935E
:1016EA000E941A0BF6C0AC85AA2392F4E985FA8502
:1016FA006B857C850E94D50CE987FA876B877C8786
:10170A00AE81BF811196AE83BF831197EDE2EC9350
:10171A00A885A73010F0E6E0E8871885E12F115078
:10172A00E03079F0AA81BB818C819D81EDECFCECE3
:10173A006CEC7DE30E94CB0DEA83FB836C837D8393
:10174A00EDCFEA81FB816C817D81A985BA858B8584
:10175A009C850E947B0DE987FA876B877C8710E05E
:10176A00E0E0F0E060E87FE3EA83FB836C837D835B
:10177A00EA81FB816C817D81A985BA858B859C85EF
:10178A000E945E0E80F0AA81BB818C819D81E0E07F
:10179A00F0E060E271E40E94CB0DEA83FB836C8384
:1017AA007D831F5FE5CF103049F4AE81BF8111966A
:1017BA00AE83BF831197E0E3EC9349C0E12F115048
:1017CA00E03011F40C942C0CAA81BB818C819D8190
:1017DA00EDECFCEC6CEC7DE30E94CB0DA0E0B0E0FC
:1017EA0080E09FE30E947B0D0E94310F0E94BE0C95
:1017FA00EA83FB836C837D83A985BA858B859C8567
:10180A000E94190E0E94080D0E2FAE81BF811196FB
:10181A00AE83BF831197E02FE05DEC93E02FF0E0F9
:10182A00AA81BB818C819D810E94950E0E94410DE7
:10183A000E94CB0DA985BA858B859C850E94360F9F
:10184A000E94740DE987FA876B877C87B7CFE88592
:10185A00E03009F43AC0AE81BF811196AE83BF83EE
:10186A001197EEE2EC93E885E150E887EF5F69F1C2
:10187A00A985BA858B859C85E0E0F0E060E271E499
:10188A000E94CB0DE987FA876B877C870E94080D37
:10189A000E2FAE81BF811196AE83BF831197E02FC1
:1018AA00E05DEC93E02FF0E0A985BA858B859C85F5
:1018BA000E94950E0E94410D0E94360F0E94740DDF
:1018CA00E987FA876B877C87CECFAE81BF81E0E05C
:1018DA00EC93198108812D960895E0913F0BF091C0
:1018EA00400B6091410B7091420BADE6BEE486EC71
:1018FA0091E40E949A0EEE59F8486F4F7F4FE09399
:10190A003F0BF093400B6093410B7093420BFB012A
:10191A00FF7708957B816A81F981E88177FB770FE8
:10192A0067FD7160972F9E5781F078F0983190F497
:10193A00AA27BB27882708948795B795A7959A95CC
:10194A00D1F7EA23FB23682305C0E8947727EE271B
:10195A00FF2766276F77769508F4606877F9A9916B
:10196A00B99189919991EA17FB076807790797FB5B
:10197A0008950E94220F0E94310F0E948F0C0E942C
:10198A002C0F19F40E94220F09C0E6F70E94220FB9
:10199A00A0E0B0E080E89FE30E94740D24960895C9
:1019AA0030976040704009F070580895552342F40A
:1019BA00503811F4E0FF04C03196691F791F6BF0AB
:1019CA0050E8572711F45F93CFC05F3F31F0660F9D
:1019DA00000C57956795752F08955F9300200AF0BC
:1019EA00CFC0C8C050E8192E1522880F991F952715
:1019FA00550F879550E8072E0522660F771F752722
:101A0A00550F67950895689401C0E8945F93F2DFD3
:101A1A00703818F07F3F08F4A7C056E1571BAAF4A4
:101A2A00519558300EF4593030F0EFEFFFEF6FEF69
:101A3A007FE777F91AC077275523B9F0EE0FFF1F12
:101A4A00661F771F5A95D1F710C07727583028F0AC
:101A5A00EF2FF62F672F5850F9CF552331F076958F
:101A6A006795F795E7955A95D1F700200AF44AD178
:101A7A005F910895689401C0E8943097604070407F
:101A8A00B1F0002426F0772312F400943BD1172EEC
:101A9A007EE1112032F07A95EE0FFF1F661F111CAE
:101AAA00F9CFEF2FF62F612D5F938ADF5F910895AB
:101ABA004F93AF01FD01DA01AB01BC01CA01402D10
:101ACA00012C142E4F910895EA0FFB1F681F0895E9
:101ADA00E095F0956095EF5FFF4F6F4F08955F9324
:101AEA0081DF903871F150E8152604C05F937ADFE0
:101AFA00903839F1703821F1572F591B2BF112F414
:101B0A00D7DFFACF583118F0AA27BB2788275830D1
:101B1A0028F0AB2FB82F88275850F9CF552329F032
:101B2A008695B795A7955A95D9F7502D512572F0F4
:101B3A00CBDF38F46795F795E795739513F420C0D2
:101B4A00B7DF3EDF5F910895D8F7FBCFEA1BFB0BA7
:101B5A00680B51F010F40094BBDF662392F3EE0F8A
:101B6A00FF1F661F7A95CBF7EE27FF276627772791
:101B7A005F910895EFEFFFEF6FE77FEF5F910895B1
:101B8A00EFEFFFEF6FE77FE75F9108955F932ADF3B
:101B9A00703851F3903841F301240894791F23F4E3
:101BAA001CF300203AF3ECCF0F921F932F933F932D
:101BBA004F93112722279927689FA0018F9F302DC5
:101BCA00410D591F6B9F300D411D591F8E9F27D004
:101BDA00BF9F25D06A9F23D0BE9F1DD0AF9F1BD029
:101BEA00AE9F110D291F391F491F591FE32FF42FCB
:101BFA00652F522F4F913F912F911F910F9066237E
:101C0A002AF0550FEE1FFF1F661F02C073954BF295
:101C1A00CDDE5F910895100D211D391F02C0200DE0
:101C2A00311D491F591F08955F93DCDE703821F476
:101C3A0011200AF49FCFA4CF903809F495CF01243C
:101C4A000894970B1BF4D4F30020F3CF792F1F933A
:101C5A002F933F934F931124112722273327442789
:101C6A00552790E2AE17BF078607410730F0AE1B33
:101C7A00BF0B860B410B089401C08894551F221F85
:101C8A00331F111CAA1FBB1F881F441F9A9551F7A7
:101C9A00F901612D4F913F912F911F91662332F0E7
:101CAA00550FEE1FFF1F661F7A9543F27FDE5F9185
:101CBA00089599239AF0772342F0971748F029F468
:101CCA00AE17BF07860720F031F0989488940895DC
:101CDA009894089408951894889408957723C2F7DD
:101CEA00971798F3A9F7EA17FB07680788F399F398
:101CFA00ECCF0024AF0DB01D0895EA1BFB0B680B57
:101D0A00790B0895F09560957095E195FF4F6F4FA7
:101D1A007F4F0895FE2FFF0FFF0B6F2F7F2F089520
:101D2A006F2F660F660B762F08957A9F702D6B9F23
:101D3A00700DF89F700DE99F700D6A9F602D710DEF
:101D4A00FB9F600D711DE89F600D711D8827FA9F2A
:101D5A00F02D610D781FEB9FF00D611D781FEA9F32
:101D6A00E02DF10D681F781F0895002498E0AA0F4E
:101D7A00001C0E1A10F40E0E01C0A1609A95B9F754
:101D8A00EA2FA02D089539D0F0DF0EF4E1950895D9
:101D9A003F934F935F93002411244427552730E241
:101DAA00AA0FBB1F881F991F001C111C441F551F17
:101DBA000E1A1F0A460B570B28F40E0E1F1E461F3B
:101DCA00571F01C0A1603A9559F7FD01BC01D00126
:101DDA00CA015F914F913F910895E894A7FF02C00D
:101DEA00A1956894E7FDE195C0DFEA2F0EF4E1952D
:101DFA000895CEDFFD01BC010895E894E7FF02C013
:101E0A00E1956894A7FF04C0A19500F8039400FA2D
:101E1A000895ED91FC9111970895ED91FD916D91C1
:101E2A007C9113970895ED91FD916D917D9108959F
:101E3A007E936E93FE93EE930895E881F9816A8109
:101E4A007B810895A881B9818A819B810895E8835D
:101E5A00F9836A837B8308957A936A93FA93EA9360
:101E6A000895182E862F612D192E972F712D1B2E4E
:101E7A00BF2FF12D1A2EAE2FE12D08953097604015
:101E8A00704008955A934A933A932A931A930A935D
:101E9A0008955D814C813B812A81198108810895C9
:00000001FF
